:100000002AC02FC02EC02DC02CC02BC02AC029C092
:1000100028C027C00100010000010001010000010B
:1000200001000100010001000001010001000001C8
:1000300000010100010001000001010000010100B8
:1000400000010100010000010001010000010001A8
:1000500001000100000011241FBECFE9CDBF02D076
:1000600059C0CECF87B3886187BB88B3886188BB0E
:100070008FEA94E00197F1F700C00000C498AFE95F
:10008000B1E41197F1F700C0000023E140E184E101
:1000900090E0FC0138B3342738BB3491311107C0EC
:1000A000AFEAB4E01197F1F700C0000004C0A0E18E
:1000B000BEE01197F1F73196B0E0E535FB0751F757
:1000C00038B3342738BBEFE9F1E43197F1F700C0DA
:1000D00000002150E1F643E550E030E128B323274A
:1000E00028BBFC012491211107C0AFEAB4E01197AD
:1000F000F1F700C0000004C0E0E1FEE03197F1F745
:1001000001964817590751F788B3877E88BB80E06E
:0801100090E00895F894FFCF80
:00000001FF
